:100000000C9462000C9408070C9435070C948A0039
:100010000C948A000C948A000C948A000C948A0038
:100020000C948A000C948A000C948A000C948A0028
:100030000C948A000C948A000C948A000C948A0018
:100040000C946F110C948A000C948D000C94D400C5
:100050000C948A000C948A000C948A000C948A00F8
:100060000C948A000C948A000000000024002700F1
:100070002A0000000000250028002B0000000000DE
:1000800023002600290004040404040404040202DA
:100090000202020203030303030301020408102007
:1000A0004080010204081020010204081020000012
:1000B0000007000201000003040600000000000029
:1000C00000002F0311241FBECFEFD8E0DEBFCDBF4D
:1000D00011E0A0E0B1E0E2EDF6E302C005900D9280
:1000E000AC34B107D9F712E0ACE4B1E001C01D9225
:1000F000AB30B107E1F710E0C4ECD0E004C02297C8
:10010000FE010E94111BC23CD107C9F70E94FF13D8
:100110000C94671B0C94000008951F920F920FB669
:100120000F9211242F933F934F938F939F93EF93AD
:10013000FF934091C60020918C0130918D012F5F7B
:100140003F4F2F73307080918E0190918F0128174F
:10015000390759F0E0918C01F0918D01E45BFE4F7D
:10016000408330938D0120938C01FF91EF919F91FB
:100170008F914F913F912F910F900FBE0F901F9035
:100180001895E091E001F091E101E05CFF4F819171
:10019000919120813181821B930B8F739070892BF9
:1001A00011F00E948C0008951F920F920FB60F92CB
:1001B00011242F933F934F935F936F937F938F936C
:1001C0009F93AF93BF93EF93FF932091D001309112
:1001D000D1018091D2019091D3012817390731F4D0
:1001E0008091C1008F7D8093C10016C0E091D20143
:1001F000F091D301E057FE4F40818091D201909160
:10020000D301019660E470E00E94AB1A9093D30191
:100210008093D2014093C600FF91EF91BF91AF91BF
:100220009F918F917F916F915F914F913F912F910E
:100230000F900FBE0F901F9018958F92AF92BF92A4
:10024000CF92DF92EF92FF920F931F93DF93CF93A2
:10025000CDB7DEB7FC011382128288EE93E0A0E0F6
:10026000B0E084839583A683B78384E091E0918393
:1002700080837587648757874687318B208B138BE4
:10028000028BF58AE48AD78AC68AB18EA08E828EC6
:100290008E85838F8F85848F8889858F8989868FC6
:1002A000CF91DF911F910F91FF90EF90DF90CF9052
:1002B000BF90AF908F9008958F92AF92BF92CF92E0
:1002C000DF92EF92FF920F931F93DF93CF93CDB7FF
:1002D000DEB7FC011382128288EE93E0A0E0B0E06A
:1002E00084839583A683B78384E091E091838083A0
:1002F0007587648757874687318B208B138B028BDA
:10030000F58AE48AD78AC68AB18EA08E828E8E85BF
:10031000838F8F85848F8889858F8989868FCF91F8
:10032000DF911F910F91FF90EF90DF90CF90BF90E2
:10033000AF908F900895AF92BF92DF92EF92FF92AD
:100340000F931F93CF93DF93EC017A018B01DD2490
:10035000403081EE580780E0680780E0780711F0B0
:10036000DD24D39491E0A92EB12CEC89FD89DD2008
:1003700069F0C5010E8C02C0880F991F0A94E2F73C
:10038000808360E079E08DE390E005C0108260E852
:1003900074E88EE190E0A80197010E94BE1A2150F6
:1003A000304040405040569547953795279580E11D
:1003B0002030380720F0DD2011F0DD24D6CFE88989
:1003C000F9893083EA89FB892083EE89FF8940819E
:1003D00021E030E0C9010A8C02C0880F991F0A94FD
:1003E000E2F7482B4083EE89FF894081C9010B8CDD
:1003F00002C0880F991F0A94E2F7482B4083EE89C8
:10040000FF894081C9010C8C02C0880F991F0A9492
:10041000E2F7482B4083EE89FF8980810D8C02C072
:10042000220F331F0A94E2F7209528232083DF91BF
:10043000CF911F910F91FF90EF90DF90BF90AF9001
:100440000895CF93DF93DC011E968D919C911F97A9
:10045000EC01C05CDF4FFC01EE5BFF4F288139816E
:100460008081918128173907C9F75696ED91FC9143
:100470005797408121E030E0C9015A960C905A9775
:1004800002C0880F991F0A94E2F780958423808325
:100490005696ED91FC9157974081C9015B960C905F
:1004A0005B9702C0880F991F0A94E2F78095842316
:1004B00080835696ED91FC9157974081C9015C96D7
:1004C0000C905C9702C0880F991F0A94E2F7809500
:1004D000842380835696ED91FC91579780815D9699
:1004E0000C905D9702C0220F331F0A94E2F720950B
:1004F000282320831C96ED91FC911D97EE5BFF4F06
:100500008081918192938293DF91CF910895DC0154
:100510001C96ED91FC911D97E05CFF4F219131916C
:1005200080819181281B390B2F733070C901089588
:10053000DC011C96ED91FC911D97E05CFF4F208142
:100540003181E054F040DF01AE5BBF4F8D919C9153
:1005500011972817390719F42FEF3FEF07C08D9136
:100560009C91E80FF91F8081282F30E0C901089580
:10057000DC011C96ED91FC911D97E05CFF4F208102
:100580003181E054F040DF01AE5BBF4F8D919C9113
:1005900011972817390719F42FEF3FEF10C08D91ED
:1005A0009C911197E80FF91F20818D919C911197D3
:1005B00001968F73907011969C938E9330E0C901D1
:1005C0000895FC0186859785DC01A05CBF4FFC0186
:1005D000EE5BFF4F2D913C911197808191812817FF
:1005E0003907C1F70895CF93DF93EC01462FEE85CD
:1005F000FF85E05CFF4F80819181E054F0400196DF
:1006000060E470E00E94AB1A9C01DF01AE5BBF4F5B
:100610008D919C91119728173907D1F3E05CFF4F1A
:1006200080819181E054F040E80FF91F4083EE850E
:10063000FF85E05CFF4F31832083EE89FF892081B5
:1006400081E090E00D8C02C0880F991F0A94E2F7B8
:10065000282B208381E090E0DF91CF9108951092C4
:10066000D7011092D60188EE93E0A0E0B0E080932D
:10067000D8019093D901A093DA01B093DB0184E013
:1006800091E09093D5018093D4018CE491E0909314
:10069000E1018093E00180E991E09093E301809390
:1006A000E20185EC90E09093E5018093E40184EC15
:1006B00090E09093E7018093E60180EC90E09093C6
:1006C000E9018093E80181EC90E09093EB01809345
:1006D000EA0186EC90E09093ED018093EC0184E0D8
:1006E0008093EE0183E08093EF0187E08093F00137
:1006F00085E08093F10181E08093F2010895CF922B
:10070000DF92EF92FF920F931F93CF93DF937C01C1
:100710006B018A01C0E0D0E00FC0D6016D916D0180
:10072000D701ED91FC910190F081E02DC701099571
:10073000C80FD91F015010400115110571F7CE01E6
:10074000DF91CF911F910F91FF90EF90DF90CF90AD
:100750000895EF92FF920F931F93CF93DF937C0145
:100760008B01C0E0D0E0F8010F5F1F4F649166235A
:1007700059F0D701ED91FC910190F081E02DC70176
:100780000995C80FD91FEFCFCE01DF91CF911F91EF
:100790000F91FF90EF900895DC01ED91FC91019095
:1007A000F081E02D099508959C01DB01ED91FC910C
:1007B0000190F081E02DCB01B90109950895EF92E8
:1007C000FF920F931F938C01DC01ED91FC9101903E
:1007D000F081E02D6DE009957C01D801ED91FC914F
:1007E0000190F081E02DC8016AE009959C012E0D71
:1007F0003F1DC9011F910F91FF90EF900895EF9257
:10080000FF920F931F937C010E94A9038C01C701E3
:100810000E94DF039C01200F311FC9011F910F911E
:10082000FF90EF900895EF92FF920F931F937C013A
:10083000DC01ED91FC910190F081E02D09958C0196
:10084000C7010E94DF03080F191FC8011F910F91F4
:10085000FF90EF900895EF92FF920F931F937C010A
:10086000DB01ED91FC910190F081E02DCB01B7010E
:1008700009958C01C7010E94DF03080F191FC801E9
:100880001F910F91FF90EF900895CF93DF93DB01BD
:100890000D900020E9F71197A61BB70BEC01E8813A
:1008A000F9810280F381E02DAD010995DF91CF91AF
:1008B00008954F925F927F928F929F92AF92BF92D4
:1008C000CF92DF92EF92FF920F931F93DF93CF931C
:1008D000CDB7DEB7A1970FB6F894DEBF0FBECDBF80
:1008E0002C01742ECB01223008F42AE019A231E247
:1008F000C32ED12CCC0EDD1E822E9924AA24BB241B
:10090000672D752FA50194010E94BE1A79018A01F5
:10091000C801B701A50194010E948C1A472D461BFE
:100920000894C108D1084A3014F4405D01C0495C04
:10093000F6014083E114F1040105110521F07E2C3C
:100940005F2DC801DDCFC201B6010E944504A1960A
:100950000FB6F894DEBF0FBECDBFCF91DF911F91D0
:100960000F91FF90EF90DF90CF90BF90AF909F904E
:100970008F907F905F904F900895DC012115310595
:1009800041F4ED91FC910190F081E02D642F0995E7
:1009900008950E9459040895EF92FF920F931F93B8
:1009A0007C010E94BD048C01C7010E94DF039C01F1
:1009B000200F311FC9011F910F91FF90EF900895F3
:1009C000EF92FF920F931F939A017B0100E010E0DA
:1009D000B801A7010E94BD041F910F91FF90EF90F5
:1009E0000895CF92DF92EF92FF920F931F936C01C5
:1009F0007B019A0100E010E0B801A7010E94BD044C
:100A00008C01C6010E94DF03080F191FC8011F9146
:100A10000F91FF90EF90DF90CF900895EF92FF92AB
:100A20000F931F939A01E62EFF2400E010E0B80117
:100A3000A7010E94BD041F910F91FF90EF900895B0
:100A4000CF92DF92EF92FF920F931F936C01E62EED
:100A50009A01FF2400E010E0B801A7010E94BD0444
:100A60008C01C6010E94DF03080F191FC8011F91E6
:100A70000F91FF90EF90DF90CF900895CF92DF928B
:100A8000EF92FF920F931F93CF93DF93EC016A01D4
:100A90007B012115310541F4E881F9810190F08154
:100AA000E02D642F09951FC02A303105D1F477FF5E
:100AB00017C0E881F9810190F081E02D6DE2099580
:100AC0008C0144275527BA014C195D096E097F092D
:100AD000CE012AE00E9459049801280F391F04C052
:100AE0002AE00E9459049C01C901DF91CF911F9116
:100AF0000F91FF90EF90DF90CF900895EF92FF92CB
:100B00000F931F937C010E943E058C01C7010E9438
:100B1000DF039C01200F311FC9011F910F91FF902E
:100B2000EF900895EF92FF920F931F937B019A012C
:100B30000027F7FC0095102FB801A7010E943E0581
:100B40001F910F91FF90EF900895CF92DF92EF9257
:100B5000FF920F931F936C017B019A010027F7FC12
:100B60000095102FB801A7010E943E058C01C60117
:100B70000E94DF03080F191FC8011F910F91FF90FA
:100B8000EF90DF90CF9008950E94450408957F92E2
:100B90008F929F92AF92BF92CF92DF92EF92FF928D
:100BA0000F931F93CF93DF934C017A018B01722E29
:100BB000CB01BA0120E030E040E050E00E94D618BE
:100BC00087FD03C0C0E0D0E00EC0D401ED91FC91E0
:100BD0000190F081E02DC4016DE20995EC0117FB55
:100BE000109517F9109520E030E040E05FE3AA246B
:100BF0000BC0CA01B90120E030E040E251E40E949C
:100C0000DA189B01AC01A394A71498F3C801B701AB
:100C10000E9472185B016C010E9447197B018C01D4
:100C2000C401B801A7012AE030E00E94BD04C80F4A
:100C3000D91F772039F0C40160E271E00E944504B9
:100C4000C80FD91FC801B7010E9473199B01AC01DD
:100C5000C601B5010E94711824C020E030E040E2D6
:100C600051E40E94291A7B018C010E9442195B0108
:100C70006C01CC24B7FCC094DC2CC401B601A501E6
:100C80002AE030E00E943E05C80FD91FC601B50119
:100C90000E9475199B01AC01C801B7010E9471182F
:100CA0007A947720D1F6CE01DF91CF911F910F91E9
:100CB000FF90EF90DF90CF90BF90AF909F908F907C
:100CC0007F9008950E94C7050895EF92FF920F93B9
:100CD0001F937C010E94C7058C01C7010E94DF039E
:100CE000080F191FC8011F910F91FF90EF900895F1
:100CF000EF92FF920F931F937C010E9445048C0199
:100D0000C7010E94DF03080F191FC8011F910F912F
:100D1000FF90EF900895AF92BF92CF92DF92EF9243
:100D2000FF920F931F93CF93DF935C016B01EE242F
:100D3000FF24C0E0D0E010C0D501ED91FC9100810E
:100D40001181C601BE010E942E08682FC501F8015D
:100D50000995E80EF91E2196F60184819581C81740
:100D6000D90750F3C701DF91CF911F910F91FF90E9
:100D7000EF90DF90CF90BF90AF900895EF92FF92E9
:100D80000F931F937C010E948B068C01C7010E9468
:100D9000DF039C01200F311FC9011F910F91FF90AC
:100DA000EF900895823000F5E82FF0E0EE0FFF1F7E
:100DB000ED50FE4F71836083882319F08130A1F4D8
:100DC00008C0809169008C7F842B80936900E89A29
:100DD000089580916900440F551F440F551F837F6C
:100DE000842B80936900E99A0895823080F48823E7
:100DF00019F0813021F402C0E89801C0E998E82F89
:100E0000F0E0EE0FFF1FED50FE4F118210820895AB
:100E10001F920F920FB60F9211242F933F934F936F
:100E20005F936F937F938F939F93AF93BF93EF9352
:100E3000FF938091F3019091F401892B29F0E091C7
:100E4000F301F091F4010995FF91EF91BF91AF91FA
:100E50009F918F917F916F915F914F913F912F91D2
:100E60000F900FBE0F901F9018951F920F920FB604
:100E70000F9211242F933F934F935F936F937F9320
:100E80008F939F93AF93BF93EF93FF938091F5015F
:100E90009091F601892B29F0E091F501F091F6018E
:100EA0000995FF91EF91BF91AF919F918F917F91A4
:100EB0006F915F914F913F912F910F900FBE0F90C7
:100EC0001F9018952F923F924F925F926F927F9250
:100ED0008F929F92AF92BF92CF92DF92EF92FF924A
:100EE0000F931F93DF93CF93CDB7DEB73B014C0138
:100EF00019012A016D897E898F89988D6A197B096C
:100F00008C099D09621A730A840A950AA401930147
:100F10000E948C1AE218F30804091509A801970128
:100F20000E94E01A2A0D3B1D4C1D5D1DB901CA012E
:100F3000CF91DF911F910F91FF90EF90DF90CF90B5
:100F4000BF90AF909F908F907F906F905F904F90E9
:100F50003F902F900895089570E0382F20E0622B85
:100F6000732BCB010895EF92FF920F931F937B0198
:100F70008C01611571058105910529F420E030E0AF
:100F800040E050E00BC00E943A16A80197010E9471
:100F9000E01AAC01CB01DA019C01AD01B901CA0133
:100FA0001F910F91FF90EF900895EF92FF920F9392
:100FB0001F937B018C01621773078407950764F404
:100FC000261B370B480B590BCA01B9010E94B30706
:100FD000E60EF71E081F191FB701C8011F910F91D8
:100FE000FF90EF900895009729F0BC0180E090E019
:100FF0000E943F160895FC01848195816817790746
:1010000048F40190F081E02D309721F0E60FF71FB2
:101010008081089580E00895FC018481958168179E
:10102000790730F40190F081E02DE60FF71F40833F
:101030000895FC019B01848195816817790728F444
:10104000608171816115710529F41092F70167EFD4
:1010500071E002C0620F731FCB010895FC0184810F
:1010600095816817790748F40190F081E02D309759
:1010700021F0E60FF71F8081089580E00895FC01BC
:101080000190F081E02D309729F40895861709F436
:101090004083319680818823C9F70895FC018081BF
:1010A0009181009729F420E030E040E050E004C056
:1010B0000E941D179B01AC01B901CA010895CF928E
:1010C000DF92EF92FF920F931F93CF93DF936C0108
:1010D000DC01ED90FC901197E114F10409F441C09A
:1010E0001496CD91DC9115972097D9F1870102C014
:1010F0000F5F1F4FF8018081992787FD90950E940F
:10110000151B892BA9F72197CE0DDF1D01C0219753
:101110008881992787FD90950E94151B892B19F0CE
:10112000C017D107A0F7FE013196E01BF10BD601E5
:101130001596FC93EE9314972D913C91201731074F
:1011400028F4C901B801AF010E944417D601ED91FE
:10115000FC91119714968D919C911597E80FF91FAA
:101160001082DF91CF911F910F91FF90EF90DF9050
:10117000CF900895CF93DF93FC01C081D181209758
:1011800039F409C0992787FD90950E94251B899302
:1011900088818823B9F7DF91CF910895CF93DF93AA
:1011A000FC01C081D181209739F409C0992787FDBE
:1011B00090950E941D1B899388818823B9F7DF9140
:1011C000CF910895EF92FF920F931F93CF93DF93E8
:1011D000FC01DB018617970739F1248135811496CC
:1011E0008D919C9115972817390701F5232BE1F074
:1011F000E080F180CD91DC9113C0992787FD909517
:101200000E941D1B8C018881992787FD90950E9463
:101210001D1B0817190751F40894E11CF11C2196B5
:10122000F7018081882349F781E001C080E0DF91E8
:10123000CF911F910F91FF90EF900895AF92BF92C1
:10124000CF92DF92EF92FF920F931F93CF93DF9392
:10125000FC015B017A01DB0114962D913C911597FD
:101260002115310559F184819581009739F1821753
:10127000930720F14817590720F07C010894E108F2
:10128000F10800811181C801CFEFDFEF6801CE0CBA
:10129000DF1C10C0F501608171810E94A2179C01C2
:1012A000009771F0801B910BE816F90608F0EC012D
:1012B000C9010196C816D90668F702C0CFEFDFEF63
:1012C000CE01DF91CF911F910F91FF90EF90DF90B2
:1012D000CF90BF90AF900895FC01DB014481558110
:1012E00014968D919C911597481B590BCF010E9424
:1012F0001E090895CF93DF93FC01DB018481958162
:101300004817590760F4C081D1816D917C91CE015D
:10131000840F951F0E94A2179C01009719F42FEFCC
:101320003FEF02C02C1B3D0BC901DF91CF91089507
:1013300040E050E00E947A090895DF92EF92FF9218
:101340000F931F93CF93DF93EC018C819D814817FE
:101350005907C8F47A010894E11CF11CE881F9816D
:10136000EE0DFF1DD080108208811981772767FD5F
:101370007095C8010E9497179C010E0D1F1DF80162
:10138000D082009719F4EFEFFFEF05C088819981B3
:10139000F901E81BF90BCF01DF91CF911F910F915C
:1013A000FF90EF90DF900895FC01448155814150FA
:1013B00050400E949D090895CF93DF93FC018481E2
:1013C00095814817590768F4C081D181772767FD57
:1013D0007095CE01840F951F0E945F179C010097A6
:1013E00019F42FEF3FEF02C02C1B3D0BC901DF9119
:1013F000CF91089540E050E00E94DC0908950F93DA
:101400001F93CF93DF93FC018B0141155105F9F038
:1014100061157105E1F0848195812817390718F06D
:10142000FB01108214C041505040EC01C21BD30B91
:101430004C175D0708F4EA0160817181620F731F28
:10144000C801AE010E948817C00FD11F1882DF911A
:10145000CF911F910F910895FC01DB01248135810B
:1014600014964D915C91159724173507A8F080814B
:101470009181009789F06D917C916115710561F002
:10148000241B350B820F931F0E946A179C0180E07A
:10149000232B19F481E0089580E00895DC01FB011D
:1014A00014968D919C911597892B31F461157105D6
:1014B000A9F090E0808108C00D90BC91A02D61152D
:1014C000710529F490E08C91882349F407C0CD017F
:1014D0000E946A179C0190E0232B09F491E0892F68
:1014E0000895CF93DF939C01FB01EC01A881B981A2
:1014F000109729F06081718161157105D1F4C08167
:10150000D181209759F084819581892B39F0888188
:1015100090E022273327281B390B12C0109771F057
:10152000F90184819581892B49F08C91282F30E035
:1015300007C0CD010E946A179C0102C020E030E084
:10154000C901DF91CF9108950E94710A892F80957A
:10155000881F8827881F08950E94710A20E01816A6
:1015600019060CF021E0822F08950E94710A20E0F4
:10157000181619060CF421E0822F08950E94710AB2
:10158000892F881F8827881F0895FC01DB0124818B
:10159000358114968D919C9115972817390711F074
:1015A00020E007C0CF010E94710A20E0892B09F4D6
:1015B00021E0822F0895FC01DB0114962D913C91CE
:1015C000159784819581821B930B84179507A0F052
:1015D00080819181009781F06D917C9161157105F9
:1015E00059F0840F951FA9010E947A179C0180E091
:1015F000232B19F481E0089580E00895FC01DB01BC
:101600002481358114968D919C911597281739075F
:1016100010F480E00895CF0140E050E00E94DB0A22
:1016200008950F931F93CF93DF93EC018B016F5FAE
:101630007F4F888199810E944816009711F480E0BD
:1016400005C0998388831B830A8381E0DF91CF9152
:101650001F910F9108952F923F924F925F926F9238
:101660007F928F929F92AF92BF92CF92DF92EF9232
:10167000FF920F931F93CF93DF935C012B014A01DD
:10168000DC0114960D911C9115970115110509F4B3
:10169000D4C0FB01C480D580C114D10409F4CDC0ED
:1016A000DA0114966D907C9015976C187D08FC01FA
:1016B000E080F1806114710491F01BC0D4016C9141
:1016C00011967C91119714964D915C9115978C2FE2
:1016D0000E944417F401E480F580EC0EFD1ED20157
:1016E0006D917C91C7010E94A217EC01009731F720
:1016F000A4C077FE02C067012EC0FB0120803180AC
:10170000E8013CC08E010E191F09C601B701A801EE
:101710000E9444170C0D1D1DD4016C9111967C91F3
:10172000119714964D915C911597C8010E9444172A
:10173000F401C480D580C00ED11ED2011496ED9064
:10174000FC901597EC0EFD1EF50184819581860DA8
:10175000971D95838483D2016D917C91C7010E946E
:10176000A217EC01009771F6C601B7010E9473172A
:1017700064C07B01EC0CFD1CC60DD71DC701B10177
:101780000E94A217BC010097A1F7C017D10709F466
:1017900054C0F501828193818C179D0708F044C0E5
:1017A000C501BE010E94110B8823F1F546C0C50199
:1017B000B201A9010E941E09EC0197FD3EC0D501AE
:1017C0006D917C911197F201848195818C0F9D1F01
:1017D000680F791F14964D915C911597481B590B12
:1017E000CB01860D971D0E944D17D50114968D9142
:1017F0009C911597860D971D15969C938E93149723
:10180000ED91FC911197E80FF91F10822D913C91F9
:101810002C0F3D1FF4016081718144815581C90104
:101820000E9444179E0105C0D50114962D913C914C
:1018300015972150304037FFBACFDF91CF911F91DC
:101840000F91FF90EF90DF90CF90BF90AF909F905F
:101850008F907F906F905F904F903F902F90089562
:10186000CF93DF93EC0188819981892B29F08A81BC
:101870009B818617970760F4CE010E94110B882385
:1018800041F08C819D81892B19F4E881F9811082C6
:1018900081E0DF91CF910895EF92FF920F931F9314
:1018A000CF93DF93EC017B016C817D81E114F10426
:1018B000C1F04115510599F08A01060F171FB801B3
:1018C0000E94300C882369F0888199812C813D81A8
:1018D000820F931FB7010E9473171D830C8381E051
:1018E00001C080E0DF91CF911F910F91FF90EF90A9
:1018F0000895EF92FF920F931F93DF93CF93CDB78D
:10190000DEB72B970FB6F894DEBF0FBECDBF7C01BC
:10191000CB01BA018E010F5F1F4FA8012AE030E012
:101920000E942618F80101900020E9F73197E01B8A
:10193000F10BC701B801AF010E944C0C2B960FB6FA
:10194000F894DEBF0FBECDBFCF91DF911F910F91F5
:10195000FF90EF900895EF92FF920F931F93DF9304
:10196000CF93CDB7DEB72C970FB6F894DEBF0FBE7E
:10197000CDBF7C01CB01BA018E010F5F1F4FA801C3
:101980002AE030E00E94DD17F80101900020E9F71D
:101990003197E01BF10BC701B801AF010E944C0C5D
:1019A0002C960FB6F894DEBF0FBECDBFCF91DF915E
:1019B0001F910F91FF90EF900895EF92FF920F9378
:1019C0001F93DF93CF9300D000D000D0CDB7DEB708
:1019D0007C01CB018E010F5F1F4FB8014AE050E040
:1019E0000E944B18F80101900020E9F73197E01BA5
:1019F000F10BC701B801AF010E944C0C26960FB63F
:101A0000F894DEBF0FBECDBFCF91DF911F910F9134
:101A1000FF90EF900895EF92FF920F931F93DF9343
:101A2000CF93CDB7DEB727970FB6F894DEBF0FBEC2
:101A3000CDBF7C01CB018E010F5F1F4FB8014AE083
:101A400050E00E94BC17F80101900020E9F731979F
:101A5000E01BF10BC701B801AF010E944C0C2796A7
:101A60000FB6F894DEBF0FBECDBFCF91DF911F91AF
:101A70000F91FF90EF900895EF92FF920F931F93B5
:101A8000DF93CF9300D000D0CDB7DEB77C01862F97
:101A900090E08E010F5F1F4FB8014AE050E00E94B6
:101AA000BC17F80101900020E9F73197E01BF10B1A
:101AB000C701B801AF010E944C0C0F900F900F901E
:101AC0000F90CF91DF911F910F91FF90EF900895AC
:101AD000DF93CF9300D0CDB7DEB769831A82BE0102
:101AE0006F5F7F4F41E050E00E944C0C0F900F90D1
:101AF000CF91DF9108956115710511F480E008958B
:101B0000DB010D900020E9F71197A61BB70BAD0183
:101B10000E944C0C0895FB016081718144815581C4
:101B20000E944C0C0895CF93DF93EC01888199813A
:101B3000009711F00E948F15198218821D821C8255
:101B40001B821A82DF91CF9108950F931F93182F54
:101B5000092F0E94790C882321F4812F902F0E9455
:101B6000930D812F902F1F910F9108950F931F9325
:101B7000182F092F0E94AB0C882321F4812F902F5E
:101B80000E94930D812F902F1F910F9108950F9315
:101B90001F93182F092F0E94DD0C882321F4812F19
:101BA000902F0E94930D812F902F1F910F910895D8
:101BB0000F931F93182F092F0E940B0D882321F4D8
:101BC000812F902F0E94930D812F902F1F910F91A5
:101BD00008950F931F93182F092F0E943C0D8823FF
:101BE00021F4812F902F0E94930D812F902F1F9110
:101BF0000F9108950F931F93182F092F0E94680DBE
:101C0000882321F4812F902F0E94930D812F902FF4
:101C10001F910F9108950F931F93182F092F61158E
:101C2000710561F0DB010D900020E9F71197A61B0B
:101C3000B70BAD010E944C0C882321F4812F902F0B
:101C40000E94930D812F902F1F910F9108950F9354
:101C50001F93182F092FFB016081718144815581E9
:101C60000E944C0C882321F4812F902F0E94930D09
:101C7000812F902F1F910F910895EF92FF920F9354
:101C80001F93CF93DF93EC017B018A01BA010E947D
:101C9000300C882321F4CE010E94930D07C01D83D0
:101CA0000C8388819981B7010E947317CE01DF915F
:101CB000CF911F910F91FF90EF900895CF93DF93F5
:101CC000EC01198218821B821A821D821C821E82DC
:101CD0006115710551F0DB010D900020E9F71197B6
:101CE000A61BB70BAD010E943D0EDF91CF91089569
:101CF000CF93DF93EC01198218821B821A821D8216
:101D00001C821E826115710551F0DB010D900020CF
:101D1000E9F71197A61BB70BAD010E943D0EDF91AD
:101D2000CF9108950F931F93182F092F61157105F7
:101D300059F0DB010D900020E9F71197A61BB70BB6
:101D4000AD010E943D0E02C00E94930D812F902F85
:101D50001F910F910895EF92FF920F931F93DF93BE
:101D6000CF93CDB7DEB7A1970FB6F894DEBF0FBE05
:101D7000CDBF8C01FC011182108213821282158268
:101D800014821682CB01BA017E010894E11CF11C79
:101D9000A70130E00E942618C801B7010E94920EE8
:101DA000A1960FB6F894DEBF0FBECDBFCF91DF91E5
:101DB0001F910F91FF90EF900895EF92FF920F9374
:101DC0001F93DF93CF93CDB7DEB7A1970FB6F894EB
:101DD000DEBF0FBECDBF8C01FC01118210821382C9
:101DE0001282158214821682CB01BA017E010894F8
:101DF000E11CF11CA70130E00E942618C801B701C0
:101E00000E94920EA1960FB6F894DEBF0FBECDBF12
:101E1000CF91DF911F910F91FF90EF900895EF9276
:101E2000FF920F931F93DF93CF93CDB7DEB7A297A7
:101E30000FB6F894DEBF0FBECDBF8C01FC0111823E
:101E4000108213821282158214821682CB01BA018B
:101E50007E010894E11CF11CA70130E00E94DD170F
:101E6000C801B7010E94920EA2960FB6F894DEBF89
:101E70000FBECDBFCF91DF911F910F91FF90EF90DB
:101E80000895EF92FF920F931F93DF93CF93CDB7F7
:101E9000DEB7A2970FB6F894DEBF0FBECDBF8C01A0
:101EA000FC01118210821382128215821482168222
:101EB000CB01BA017E010894E11CF11CA70130E0BE
:101EC0000E94DD17C801B7010E94920EA2960FB6BC
:101ED000F894DEBF0FBECDBFCF91DF911F910F9160
:101EE000FF90EF900895EF92FF920F931F93DF936F
:101EF000CF93CDB7DEB761970FB6F894DEBF0FBEB4
:101F0000CDBF8C01CB01F8011182108213821282A5
:101F10001582148216827E010894E11CF11CB7011F
:101F200050E00E944B18C801B7010E94920E6196C2
:101F30000FB6F894DEBF0FBECDBFCF91DF911F91DA
:101F40000F91FF90EF900895EF92FF920F931F93E0
:101F5000DF93CF93CDB7DEB761970FB6F894DEBFAE
:101F60000FBECDBF8C01CB01F8011182108213820C
:101F700012821582148216827E010894E11CF11CE3
:101F8000B70150E00E944B18C801B7010E94920EA1
:101F900061960FB6F894DEBF0FBECDBFCF91DF9133
:101FA0001F910F91FF90EF900895EF92FF920F9382
:101FB0001F93DF93CF93CDB7DEB762970FB6F89438
:101FC000DEBF0FBECDBF8C01CB01F80111821082A4
:101FD000138212821582148216827E010894E11CFB
:101FE000F11CB70150E00E94BC17C801B7010E9464
:101FF000920E62960FB6F894DEBF0FBECDBFCF91A2
:10200000DF911F910F91FF90EF900895EF92FF9253
:102010000F931F93DF93CF93CDB7DEB762970FB6C1
:10202000F894DEBF0FBECDBF8C01CB01F801118249
:102030001082138212821582148216827E01089405
:10204000E11CF11CB70150E00E94BC17C801B701A8
:102050000E94920E62960FB6F894DEBF0FBECDBFFF
:10206000CF91DF911F910F91FF90EF900895EF9224
:10207000FF920F931F93DF93CF93CDB7DEB72997CE
:102080000FB6F894DEBF0FBECDBF8C01862FF801CE
:10209000118210821382128215821482168290E0BD
:1020A0007E010894E11CF11CB70150E00E944B181E
:1020B000C801B7010E94920E29960FB6F894DEBFB0
:1020C0000FBECDBFCF91DF911F910F91FF90EF9089
:1020D0000895EF92FF920F931F93DF93CF93CDB7A5
:1020E000DEB729970FB6F894DEBF0FBECDBF8C01C7
:1020F000862FF801118210821382128215821482B7
:10210000168290E07E010894E11CF11CB70150E0BA
:102110000E944B18C801B7010E94920E29960FB673
:10212000F894DEBF0FBECDBFCF91DF911F910F910D
:10213000FF90EF900895DF93CF9300D0CDB7DEB737
:10214000FC0111821082138212821582148216827F
:1021500069831A82BE016F5F7F4F0E94920E0F90BB
:102160000F90CF91DF910895DF93CF9300D0CDB73B
:10217000DEB7FC0111821082138212821582148252
:10218000168269831A82BE016F5F7F4F0E94920E92
:102190000F900F90CF91DF910895BF92CF92DF9271
:1021A000EF92FF920F931F93CF93DF93082FB92ED7
:1021B0006B017A01E9012417350710F4EA0179016E
:1021C000802F9B2D6AE271E00E945E0ED60114966C
:1021D0008D919C9115978E159F05D0F08C179D07BA
:1021E00008F4EC01D601ED91FC911197EC0FFD1F65
:1021F000108110826D917C916E0D7F1D802F9B2D23
:102200000E94920ED601ED91FC91EC0FFD1F108300
:10221000802F9B2DDF91CF911F910F91FF90EF9019
:10222000DF90CF90BF9008950F931F938C01FB0117
:10223000248135810E94CD10C8011F910F9108950E
:10224000CF93DF93EC01FB018617970761F0608164
:1022500071816115710529F0448155810E943D0EFF
:1022600002C00E94930DCE01DF91CF910895FC0131
:1022700011821082138212821582148216820E94A9
:1022800020110895FC01118210821382128215829E
:10229000148216820E9420110895FC018081918190
:1022A0000E948F150895FC01808191810E948F15F5
:1022B0000895FC0120E030E08081882311F421E0C2
:1022C00030E0C9010895FC0181E0808308950895FC
:1022D00008950E948F1508950E94E51408951F9295
:1022E0000F920FB60F9211242F933F938F939F93CA
:1022F000AF93BF938091FC019091FD01A091FE01ED
:10230000B091FF01309100020196A11DB11D232F54
:102310002D5F2D3720F02D570196A11DB11D209363
:1023200000028093FC019093FD01A093FE01B09305
:10233000FF018091F8019091F901A091FA01B0910B
:10234000FB010196A11DB11D8093F8019093F90145
:10235000A093FA01B093FB01BF91AF919F918F9130
:102360003F912F910F900FBE0F901F9018958FB730
:10237000F8942091FC013091FD014091FE015091B3
:10238000FF018FBFB901CA0108959FB7F89420914A
:10239000F8013091F9014091FA015091FB0186B5A5
:1023A000A89B06C08F3F21F02F5F3F4F4F4F5F4FDD
:1023B0009FBF542F432F322F2227280F311D411D3D
:1023C000511D82E0220F331F441F551F8A95D1F7FC
:1023D000B901CA0108959B01AC017FB7F8948091BF
:1023E000F8019091F901A091FA01B091FB0166B555
:1023F000A89B05C06F3F19F00196A11DB11D7FBFBD
:10240000BA2FA92F982F8827860F911DA11DB11DC6
:1024100062E0880F991FAA1FBB1F6A95D1F7BC0104
:102420002DC0FFB7F8948091F8019091F901A09127
:10243000FA01B091FB01E6B5A89B05C0EF3F19F08A
:102440000196A11DB11DFFBFBA2FA92F982F882774
:102450008E0F911DA11DB11DE2E0880F991FAA1FCB
:10246000BB1FEA95D1F7861B970B885E9340C8F295
:10247000215030404040504068517C4F211531057B
:102480004105510571F60895019739F0880F991F9C
:10249000880F991F02970197F1F70895789484B5F2
:1024A000826084BD84B5816084BD85B5826085BD50
:1024B00085B5816085BDEEE6F0E080818160808336
:1024C000E1E8F0E010828081826080838081816019
:1024D0008083E0E8F0E0808181608083E1EBF0E0E0
:1024E000808184608083E0EBF0E080818160808384
:1024F000EAE7F0E08081846080838081826080836D
:102500008081816080838081806880831092C10097
:10251000089580932B010895982F8E3008F09E50D7
:10252000977080912B018295880F880F807C892B72
:1025300080937C0080917A00806480937A008091FF
:102540007A0086FDFCCF2091780040917900942F8D
:1025500080E030E0282B392BC90108951F93CF93D9
:10256000DF93182FEB0161E00E940E13209709F40E
:102570004AC0CF3FD10509F449C0E12FF0E0E25550
:10258000FF4F84918330C1F0843028F4813051F0C2
:102590008230B1F50CC0863019F1873049F18430B2
:1025A00079F514C084B5806884BDC7BD33C084B5D7
:1025B000806284BDC8BD2EC08091800080688093F9
:1025C0008000D0938900C093880024C0809180004F
:1025D000806280938000D0938B00C0938A001AC0E1
:1025E0008091B00080688093B000C093B30012C0A7
:1025F0008091B00080628093B000C093B4000AC0A4
:10260000C038D1051CF4812F60E002C0812F61E049
:102610000E943413DF91CF911F910895482F50E00D
:10262000CA0186569F4FFC0124914A575F4FFA0119
:1026300084918823C1F0E82FF0E0EE0FFF1FE859E6
:10264000FF4FA591B491662341F49FB7F8948C9104
:10265000209582238C939FBF08959FB7F8948C9107
:10266000822B8C939FBF0895482F50E0CA0182555A
:102670009F4FFC012491CA0186569F4FFC01949103
:102680004A575F4FFA013491332309F440C02223A3
:1026900051F1233071F0243028F42130A1F02230A0
:1026A00011F514C02630B1F02730C1F02430D9F430
:1026B00004C0809180008F7703C0809180008F7D5F
:1026C0008093800010C084B58F7702C084B58F7D61
:1026D00084BD09C08091B0008F7703C08091B000A5
:1026E0008F7D8093B000E32FF0E0EE0FFF1FEE58D8
:1026F000FF4FA591B4912FB7F894662321F48C91E4
:102700009095892302C08C91892B8C932FBF0895BB
:10271000682F70E0CB0182559F4FFC012491CB01C3
:1027200086569F4FFC0144916A577F4FFB0194915D
:10273000992319F420E030E03CC0222351F12330EA
:1027400071F0243028F42130A1F0223011F514C0AA
:102750002630B1F02730C1F02430D9F404C0809184
:1027600080008F7703C0809180008F7D80938000F0
:1027700010C084B58F7702C084B58F7D84BD09C039
:102780008091B0008F7703C08091B0008F7D8093DF
:10279000B000892F90E0880F991F84589F4FFC014B
:1027A000A591B4918C9120E030E0842311F021E0D8
:1027B00030E0C901089584ED91E00E947F030895FF
:1027C0000F931F93CF93DF938A01E90184ED91E08A
:1027D0000E94B802F8018083198218828F5F9F4F90
:1027E00021F081E090E099838883DF91CF911F9160
:1027F0000F91089584ED91E00E949B010895AF929E
:10280000BF92CF92DF92EF92FF920F931F93CF93DD
:10281000DF930E944E120E943F14C0912C01D09170
:102820002D01AA24BB24650115C00E94C5117B019E
:102830008C01DC01CB018A199B09AC09BD098059C7
:10284000904DA340B04030F00E9451140E943D14BE
:102850005701680188819981892B39F30E943E14C0
:1028600080E090E0DF91CF911F910F91FF90EF906A
:10287000DF90CF90BF90AF90089508950895109283
:1028800006021092050210920102109202021092AA
:1028900003021092040280913E0161E00E940E1337
:1028A00008956F927F928F929F92AF92BF92CF9234
:1028B000DF92EF92FF920F931F93E0900102F0904E
:1028C00002020091030210910402C801B7010E94A4
:1028D00075193B014C01209136013091370140912F
:1028E0003801509139010E94D61888235CF417FDF5
:1028F00009C0A0902E01B0902F01C0903001D0905F
:1029000031010AC00F2EF0E0AF2EF0E0BF2EF0E054
:10291000CF2EF0E0DF2EF02D609132017091330167
:10292000809134019091350120E030E040E85FE390
:102930000E9471189B01AC01C401B3010E94251AC9
:1029400088234CF0109201021092020210920302AE
:10295000109204020DC00894E11CF11C011D111D10
:10296000E0920102F092020200930302109304022B
:10297000C601B50120E030E040E853E40E94D618DB
:1029800087FD02C06FEF10C0C601B50120E030E046
:1029900040E050E00E94251A87FF02C060E004C0BA
:1029A000C601B5010E94471980913E010E9434136F
:1029B0001F910F91FF90EF90DF90CF90BF90AF905D
:1029C0009F908F907F906F900895CF93DF93BC017D
:1029D0008230910510F462E070E0A0910902B0919C
:1029E0000A02ED01E0E0F0E040E050E021C0888123
:1029F00099818617970769F48A819B81309719F02E
:102A00009383828304C090930A0280930902FE019B
:102A100034C06817790738F44115510519F0841747
:102A2000950708F4AC01FE018A819B819C01E901B4
:102A30002097E9F641155105A9F1CA01861B970BAC
:102A4000049708F4BA01E0E0F0E02AC08D919C916F
:102A5000119784179507F9F46417750781F4129696
:102A60008D919C911397309719F09383828304C0C2
:102A700090930A0280930902FD0132964CC0CA016C
:102A8000861B970BFD01E80FF91F61937193029765
:102A90008D939C9340C0FD01828193819C01D9015B
:102AA0001097A1F68091070290910802892B41F4BA
:102AB0008091440190914501909308028093070210
:102AC00040914601509147014115510541F44DB7E0
:102AD0005EB78091420190914301481B590B2091B0
:102AE000070230910802CA01821B930B86179707D1
:102AF00080F0AB014E5F5F4F8417950750F0420F97
:102B0000531F5093080240930702F9016193719398
:102B100002C0E0E0F0E0CF01DF91CF910895CF93C4
:102B2000DF93009709F450C0EC0122971B821A82B0
:102B3000A0910902B0910A02109709F140E050E01B
:102B4000AC17BD0708F1BB83AA83FE012191319127
:102B5000E20FF31FAE17BF0779F48D919C91119787
:102B6000280F391F2E5F3F4F3983288312968D918E
:102B70009C9113979B838A834115510571F4D093DF
:102B80000A02C093090220C012968D919C9113975E
:102B9000AD01009711F0DC01D3CFFA01D383C283DA
:102BA00021913191E20FF31FCE17DF0769F488817D
:102BB0009981280F391F2E5F3F4FFA0131832083FF
:102BC0008A819B8193838283DF91CF910895A0E0D6
:102BD000B0E0EDEEF5E10C94381BEC01A880B98073
:102BE000CA80DB80A114B104C104D10441F484E2A1
:102BF000A82E89EDB82E8BE5C82E87E0D82EC60109
:102C0000B5012DE133EF41E050E00E94E01A27EAE0
:102C100031E440E050E00E948C1A7B018C01C60137
:102C2000B5012DE133EF41E050E00E94E01ACA0106
:102C3000B9012CEE34EF4FEF5FEF0E948C1A6E0D4E
:102C40007F1D801F911F97FF04C06150704080401E
:102C50009048688379838A839B839B01AC015F776B
:102C6000B901CA01CDB7DEB7EAE00C94541B0E944B
:102C7000E715089588E491E00E94E71508956093B0
:102C800048017093490180934A0190934B01089544
:102C9000A0E0B0E0EEE4F6E10C94321B6C0100978A
:102CA00029F4CB010E94E5146C01C1C08EEF882E7F
:102CB0008FEF982E8C0C9D1C8601060F171F081590
:102CC000190508F4B2C0F401A081B181A617B707B5
:102CD000B8F0A530B10508F4AAC0CD010497861755
:102CE000970708F4A4C01297A61BB70BF801A1938D
:102CF000B193D4016D937C93CF010E948F1597C03F
:102D00007B01EA1AFB0AEEEFFFEFEE0EFF1E360123
:102D10006A0E7B1EC0910902D0910A0244245524F8
:102D2000AA24BB244AC0C615D705E1F548815981BC
:102D30004E155F05B8F1CA0104978E159F05B0F4D2
:102D40001296A40FB51FF401B183A0832A813B81A1
:102D50004114510431F0D20113963C932E931297F3
:102D600066C030930A022093090261C08A819B8168
:102D7000F80193838283425050404E195F0951837A
:102D800040834114510431F0D20113961C930E93E9
:102D9000129704C010930A0200930902F401718390
:102DA000608345C088819981A816B90608F45C0142
:102DB0002E018A819B819C01E901209709F0B3CF04
:102DC000809107029091080286159705E9F4A616EE
:102DD000B706D0F420914601309147012115310505
:102DE00041F42DB73EB78091420190914301281BD9
:102DF000390B02171307C8F4109308020093070257
:102E0000D4016D937C9313C0CB010E94E514EC01B7
:102E1000009759F0F40140815181B6010E94441796
:102E2000C6010E948F156E0102C0CC24DD24C601AC
:102E3000CDB7DEB7E0E10C944E1B1F93FC01992740
:102E40008827BC01E89411911032E9F3193010F091
:102E50001E30C8F31B3251F01D3249F4689406C08D
:102E60000E941118610F711D811D911D1191105348
:102E70001A30B0F33EF490958095709561957F4F30
:102E80008F4F9F4F1F910895FB01DC0102C00190FD
:102E90000D9241505040D8F708956817790768F4AB
:102EA000FB01DC01E40FF51FA40FB51F02C0029067
:102EB0000E9241505040D8F708950C944417FC01ED
:102EC0008191861721F08823D9F7992708953197A2
:102ED000CF010895FB01DC018D9101908019011053
:102EE000D9F3990B0895FB01DC0101900D920020AC
:102EF000E1F70895FB01DC014150504030F08D9125
:102F00000190801919F40020B9F7881B990B0895D6
:102F1000FB01DC014150504048F001900D9200202F
:102F2000C9F701C01D9241505040E0F70895FC01DF
:102F300081E090E00190061609F4CF010020D1F75E
:102F400001970895FB0151915523A9F0BF01DC01C0
:102F50004D9145174111E1F759F4CD010190002041
:102F600049F04D9140154111C9F3FB014111EFCFDB
:102F700081E090E001970895FB019F01E8944230C1
:102F8000C4F04532B4F44A3029F497FB1EF490950E
:102F900081959F4F642F77270E94FB1A805D8A33AB
:102FA0000CF0895D8193CB010097A1F716F45DE2E7
:102FB00051931082C9010C946118FA01CF93FF93C9
:102FC000EF93223044F1253234F5C22FE894CA3011
:102FD00049F497FB3EF490958095709561957F4FED
:102FE0008F4F9F4F2C2F332744275527FF93EF9365
:102FF0000E94BE1AEF91FF91605D6A330CF0695D2B
:103000006193B901CA01605070408040904051F70F
:1030100016F4CDE2C19310828F919F91CF910C94C1
:103020006118592F482F372F262F660F771F881FBB
:10303000991F660F771F881F991F620F731F841FC8
:10304000951F660F771F881F991F0895FA01CF9368
:10305000FF93EF932230CCF02532BCF4C22F2C2FFB
:10306000332744275527FF93EF930E94BE1AEF9111
:10307000FF91605D6A330CF0695D6193B901CA012B
:10308000605070408040904051F710828F919F9126
:10309000CF910C946118FB019F01423074F04532CE
:1030A00064F4642F77270E94FB1A805D8A330CF04A
:1030B000895D8193CB010097A1F71082C9010C941F
:1030C0006118DC01FC01672F71917723E1F73297DA
:1030D00004C07C916D9370836291AE17BF07C8F3F3
:1030E00008955058BB27AA270ED075C166D130F07D
:1030F0006BD120F031F49F3F11F41EF45BC10EF44C
:10310000E095E7FB51C1E92F77D180F3BA17620749
:1031100073078407950718F071F49EF58FC10EF4BC
:10312000E0950B2EBA2FA02D0B01B90190010C01D7
:10313000CA01A0011124FF27591B99F0593F50F4EF
:10314000503E68F11A16F040A22F232F342F442747
:10315000585FF3CF469537952795A795F04053953F
:10316000C9F77EF41F16BA0B620B730B840BBAF00F
:103170009150A1F0FF0FBB1F661F771F881FC2F77A
:103180000EC0BA0F621F731F841F48F4879577958E
:103190006795B795F7959E3F08F0B3CF9395880F45
:1031A00008F09927EE0F979587950895D9D008F4E0
:1031B00081E008950CD00FC107D140F0FED030F06F
:1031C00021F45F3F19F0F0C0511139C1F3C014D19F
:1031D00098F39923C9F35523B1F3951B550BBB27DE
:1031E000AA2762177307840738F09F5F5F4F220F8B
:1031F000331F441FAA1FA9F333D00E2E3AF0E0E884
:1032000030D091505040E695001CCAF729D0FE2FCF
:1032100027D0660F771F881FBB1F26173707480761
:10322000AB07B0E809F0BB0B802DBF01FF27935817
:103230005F4F2AF09E3F510568F0B6C000C15F3F66
:10324000ECF3983EDCF3869577956795B795F795FF
:103250009F5FC9F7880F911D9695879597F90895F7
:10326000E1E0660F771F881FBB1F62177307840793
:10327000BA0720F0621B730B840BBA0BEE1F88F7A2
:10328000E095089504D06894B111D9C00895BCD0D8
:1032900088F09F5790F0B92F9927B751A0F0D1F03F
:1032A000660F771F881F991F1AF0BA95C9F712C0C9
:1032B000B13081F0C3D0B1E00895C0C0672F782F3E
:1032C0008827B85F39F0B93FCCF386957795679535
:1032D000B395D9F73EF490958095709561957F4FA1
:1032E0008F4F9F4F0895E89409C097FB3EF4909547
:1032F0008095709561957F4F8F4F9F4F9923A9F0CF
:10330000F92F96E9BB279395F6958795779567955D
:10331000B795F111F8CFFAF4BB0F11F460FF1BC0A1
:103320006F5F7F4F8F4F9F4F16C0882311F096E934
:1033300011C0772321F09EE8872F762F05C06623E2
:1033400071F096E8862F70E060E02AF09A95660F9B
:10335000771F881FDAF7880F9695879597F9089554
:10336000990F0008550FAA0BE0E8FEEF1616170696
:10337000E807F907C0F012161306E407F50798F0FE
:10338000621B730B840B950B39F40A2661F0232B17
:10339000242B252B21F408950A2609F4A140A69593
:1033A0008FEF811D811D089597F99F6780E870E078
:1033B00060E008959FEF80EC089500240A941616AB
:1033C000170618060906089500240A941216130613
:1033D000140605060895092E0394000C11F48823A1
:1033E00052F0BB0F40F4BF2B11F460FF04C06F5FBD
:1033F0007F4F8F4F9F4F089557FD9058440F551F93
:1034000059F05F3F71F04795880F97FB991F61F066
:103410009F3F79F087950895121613061406551FDD
:10342000F2CF4695F1DF08C0161617061806991F49
:10343000F1CF86957105610508940895E894BB273E
:1034400066277727CB0197F908958ADF08F48FEF75
:1034500008950BD0C0CFB1DF28F0B6DF18F0952368
:1034600009F0A2CFA7CF1124EACFC6DFA0F3959F22
:10347000D1F3950F50E0551F629FF001729FBB275B
:10348000F00DB11D639FAA27F00DB11DAA1F649F07
:103490006627B00DA11D661F829F2227B00DA11DBA
:1034A000621F739FB00DA11D621F839FA00D611D40
:1034B000221F749F3327A00D611D231F849F600D61
:1034C000211D822F762F6A2F11249F5750408AF09A
:1034D000E1F088234AF0EE0FFF1FBB1F661F771F26
:1034E000881F91505040A9F79E3F510570F05CCF66
:1034F000A6CF5F3FECF3983EDCF386957795679512
:10350000B795F795E7959F5FC1F7FE2B880F911D43
:103510009695879597F90895629FD001739FF00162
:10352000829FE00DF11D649FE00DF11D929FF00D53
:10353000839FF00D749FF00D659FF00D9927729F8A
:10354000B00DE11DF91F639FB00DE11DF91FBD0115
:10355000CF011124089597FB092E07260AD077FD85
:1035600004D049D006D000201AF4709561957F4FA1
:103570000895F6F7909581959F4F0895A1E21A2E30
:10358000AA1BBB1BFD010DC0AA1FBB1FEE1FFF1F07
:10359000A217B307E407F50720F0A21BB30BE40B57
:1035A000F50B661F771F881F991F1A9469F760959E
:1035B0007095809590959B01AC01BD01CF01089558
:1035C00097FB092E05260ED057FD04D0D7DF0AD071
:1035D000001C38F450954095309521953F4F4F4F42
:1035E0005F4F0895F6F790958095709561957F4FA0
:1035F0008F4F9F4F0895AA1BBB1B51E107C0AA1F05
:10360000BB1FA617B70710F0A61BB70B881F991F83
:103610005A95A9F780959095BC01CD010895EE0FBC
:10362000FF1F0590F491E02D0994911116C080328E
:1036300019F089508550D0F708959111089581545B
:103640008A5108F4805E855A089591110895815633
:103650008A5108F48052855808959927882708953B
:103660002F923F924F925F926F927F928F929F9292
:10367000AF92BF92CF92DF92EF92FF920F931F9380
:10368000CF93DF93CDB7DEB7CA1BDB0B0FB6F89431
:10369000DEBF0FBECDBF09942A88398848885F8471
:1036A0006E847D848C849B84AA84B984C884DF80E2
:1036B000EE80FD800C811B81AA81B981CE0FD11DC6
:1036C0000FB6F894DEBF0FBECDBFED010895F8949C
:0236D000FFCF2A
:1036D20000000000F3027F038702B8029802E102B1
:1036E2000000000068117F036811681168116811F9
:1036F2002E000000000068117F0300010502000097
:10370200803F0000A0410000803F000000000D004B
:0C371200000020000B020000010000007D
:00000001FF
